{
  "contractName": "SupportsInterface",
  "abi": [
    {
      "inputs": [],
      "payable": false,
      "stateMutability": "nonpayable",
      "type": "constructor"
    },
    {
      "constant": true,
      "inputs": [
        {
          "name": "_interfaceID",
          "type": "bytes4"
        }
      ],
      "name": "supportsInterface",
      "outputs": [
        {
          "name": "",
          "type": "bool"
        }
      ],
      "payable": false,
      "stateMutability": "view",
      "type": "function"
    }
  ],
  "bytecode": "0x608060405260405180807f737570706f727473496e7465726661636528627974657334290000000000000081525060190190506040518091039020600160006101000a81548163ffffffff021916908360e01c021790555034801561006357600080fd5b506001600080600160009054906101000a900460e01b7bffffffffffffffffffffffffffffffffffffffffffffffffffffffff19167bffffffffffffffffffffffffffffffffffffffffffffffffffffffff1916815260200190815260200160002060006101000a81548160ff021916908315150217905550610122806100eb6000396000f3fe6080604052348015600f57600080fd5b506004361060285760003560e01c806301ffc9a714602d575b600080fd5b607560048036036020811015604157600080fd5b8101908080357bffffffffffffffffffffffffffffffffffffffffffffffffffffffff19169060200190929190505050608f565b604051808215151515815260200191505060405180910390f35b6000806000837bffffffffffffffffffffffffffffffffffffffffffffffffffffffff19167bffffffffffffffffffffffffffffffffffffffffffffffffffffffff1916815260200190815260200160002060009054906101000a900460ff16905091905056fea165627a7a723058207b45e1dd7b196395a5e24f0f99c1d868a2719a6c7c91cb69fd43e3a25170ce5b0029",
  "source": "pragma solidity 0.5.8;\n\nimport \"./ERC165.sol\";\n\n/**\n * @dev Implementation of standard for detect smart contract interfaces.\n */\ncontract SupportsInterface is ERC165 {\n    /**\n   * @dev Mapping of supported intefraces.\n   * @notice You must not set element 0xffffffff to true.\n   */\n    mapping(bytes4 => bool) internal supportedInterfaces;\n\n    bytes4 private InterfaceID_ERC165 = bytes4(\n        keccak256(\"supportsInterface(bytes4)\")\n    );\n\n    /**\n   * @dev Contract constructor.\n   */\n    constructor() public {\n        supportedInterfaces[InterfaceID_ERC165] = true;\n\n    }\n\n    /**\n   * @dev Function to check which interfaces are suported by this contract.\n   * @param _interfaceID Id of the interface.\n   * @return True if _interfaceID is supported, false otherwise.\n   */\n    function supportsInterface(bytes4 _interfaceID)\n        external\n        view\n        returns (bool)\n    {\n        return supportedInterfaces[_interfaceID];\n    }\n\n}\n",
  "sourcePath": "/Users/eduardopezzi/Documents/Blockchain Course/smart_contract_essentials/final_assignment/contracts/utils/supported-Interfaces.sol",
  "compiler": {
    "name": "solc",
    "version": "0.5.8+commit.23d335f2.Emscripten.clang"
  },
  "schemaVersion": "3.0.16",
  "updatedAt": "2020-01-30T23:36:57.478Z",
  "devdoc": {
    "details": "Implementation of standard for detect smart contract interfaces.",
    "methods": {
      "constructor": {
        "details": "Contract constructor."
      },
      "supportsInterface(bytes4)": {
        "details": "Function to check which interfaces are suported by this contract.",
        "params": {
          "_interfaceID": "Id of the interface."
        },
        "return": "True if _interfaceID is supported, false otherwise."
      }
    }
  },
  "userdoc": {
    "methods": {}
  }
}