{
  "contractName": "TicketMaster",
  "abi": [
    {
      "constant": true,
      "inputs": [],
      "name": "eventOwner",
      "outputs": [
        {
          "name": "",
          "type": "address"
        }
      ],
      "payable": false,
      "stateMutability": "view",
      "type": "function"
    },
    {
      "constant": true,
      "inputs": [],
      "name": "event_active",
      "outputs": [
        {
          "name": "",
          "type": "bool"
        }
      ],
      "payable": false,
      "stateMutability": "view",
      "type": "function"
    },
    {
      "constant": true,
      "inputs": [
        {
          "name": "",
          "type": "uint256"
        }
      ],
      "name": "idToApproval",
      "outputs": [
        {
          "name": "",
          "type": "address"
        }
      ],
      "payable": false,
      "stateMutability": "view",
      "type": "function"
    },
    {
      "constant": true,
      "inputs": [
        {
          "name": "",
          "type": "uint256"
        }
      ],
      "name": "idToOwner",
      "outputs": [
        {
          "name": "",
          "type": "address"
        }
      ],
      "payable": false,
      "stateMutability": "view",
      "type": "function"
    },
    {
      "constant": true,
      "inputs": [],
      "name": "event_name",
      "outputs": [
        {
          "name": "",
          "type": "string"
        }
      ],
      "payable": false,
      "stateMutability": "view",
      "type": "function"
    },
    {
      "constant": true,
      "inputs": [],
      "name": "cap_max",
      "outputs": [
        {
          "name": "",
          "type": "uint256"
        }
      ],
      "payable": false,
      "stateMutability": "view",
      "type": "function"
    },
    {
      "inputs": [
        {
          "name": "_cap_max",
          "type": "uint256"
        },
        {
          "name": "_event_name",
          "type": "string"
        }
      ],
      "payable": false,
      "stateMutability": "nonpayable",
      "type": "constructor"
    },
    {
      "anonymous": false,
      "inputs": [
        {
          "indexed": true,
          "name": "_from",
          "type": "address"
        },
        {
          "indexed": true,
          "name": "_to",
          "type": "address"
        },
        {
          "indexed": true,
          "name": "_tokenId",
          "type": "uint256"
        }
      ],
      "name": "Transfer",
      "type": "event"
    },
    {
      "anonymous": false,
      "inputs": [
        {
          "indexed": true,
          "name": "_owner",
          "type": "address"
        },
        {
          "indexed": true,
          "name": "_approved",
          "type": "address"
        },
        {
          "indexed": true,
          "name": "_tokenId",
          "type": "uint256"
        }
      ],
      "name": "Approval",
      "type": "event"
    },
    {
      "anonymous": false,
      "inputs": [
        {
          "indexed": true,
          "name": "_owner",
          "type": "address"
        },
        {
          "indexed": true,
          "name": "_operator",
          "type": "address"
        },
        {
          "indexed": true,
          "name": "_approved",
          "type": "bool"
        }
      ],
      "name": "ApprovalForAll",
      "type": "event"
    },
    {
      "constant": true,
      "inputs": [
        {
          "name": "_interfaceID",
          "type": "bytes4"
        }
      ],
      "name": "supportsInterface",
      "outputs": [
        {
          "name": "",
          "type": "bool"
        }
      ],
      "payable": false,
      "stateMutability": "view",
      "type": "function"
    },
    {
      "constant": true,
      "inputs": [
        {
          "name": "_owner",
          "type": "address"
        }
      ],
      "name": "balanceOf",
      "outputs": [
        {
          "name": "",
          "type": "uint256"
        }
      ],
      "payable": false,
      "stateMutability": "view",
      "type": "function"
    },
    {
      "constant": true,
      "inputs": [
        {
          "name": "_tokenId",
          "type": "uint256"
        }
      ],
      "name": "ownerOf",
      "outputs": [
        {
          "name": "",
          "type": "address"
        }
      ],
      "payable": false,
      "stateMutability": "view",
      "type": "function"
    },
    {
      "constant": false,
      "inputs": [
        {
          "name": "_from",
          "type": "address"
        },
        {
          "name": "_to",
          "type": "address"
        },
        {
          "name": "_tokenId",
          "type": "uint256"
        }
      ],
      "name": "safeTransferFrom",
      "outputs": [],
      "payable": true,
      "stateMutability": "payable",
      "type": "function"
    },
    {
      "constant": false,
      "inputs": [
        {
          "name": "_from",
          "type": "address"
        },
        {
          "name": "_to",
          "type": "address"
        },
        {
          "name": "_tokenId",
          "type": "uint256"
        },
        {
          "name": "_data",
          "type": "bytes"
        }
      ],
      "name": "safeTransferFrom",
      "outputs": [],
      "payable": true,
      "stateMutability": "payable",
      "type": "function"
    },
    {
      "constant": false,
      "inputs": [
        {
          "name": "from",
          "type": "address"
        },
        {
          "name": "to",
          "type": "address"
        },
        {
          "name": "tokenId",
          "type": "uint256"
        }
      ],
      "name": "transferFrom",
      "outputs": [],
      "payable": true,
      "stateMutability": "payable",
      "type": "function"
    },
    {
      "constant": false,
      "inputs": [
        {
          "name": "_approved",
          "type": "address"
        },
        {
          "name": "_tokenId",
          "type": "uint256"
        }
      ],
      "name": "approve",
      "outputs": [],
      "payable": true,
      "stateMutability": "payable",
      "type": "function"
    },
    {
      "constant": false,
      "inputs": [
        {
          "name": "_operator",
          "type": "address"
        },
        {
          "name": "_approved",
          "type": "bool"
        }
      ],
      "name": "setApprovalForAll",
      "outputs": [],
      "payable": false,
      "stateMutability": "nonpayable",
      "type": "function"
    },
    {
      "constant": true,
      "inputs": [
        {
          "name": "_tokenId",
          "type": "uint256"
        }
      ],
      "name": "getApproved",
      "outputs": [
        {
          "name": "",
          "type": "address"
        }
      ],
      "payable": false,
      "stateMutability": "view",
      "type": "function"
    },
    {
      "constant": true,
      "inputs": [
        {
          "name": "_owner",
          "type": "address"
        },
        {
          "name": "_operator",
          "type": "address"
        }
      ],
      "name": "isApprovedForAll",
      "outputs": [
        {
          "name": "",
          "type": "bool"
        }
      ],
      "payable": false,
      "stateMutability": "view",
      "type": "function"
    },
    {
      "constant": false,
      "inputs": [
        {
          "name": "_operator",
          "type": "address"
        },
        {
          "name": "_from",
          "type": "address"
        },
        {
          "name": "_tokenId",
          "type": "uint256"
        },
        {
          "name": "_data",
          "type": "bytes"
        }
      ],
      "name": "onERC721Received",
      "outputs": [
        {
          "name": "",
          "type": "bytes4"
        }
      ],
      "payable": false,
      "stateMutability": "nonpayable",
      "type": "function"
    },
    {
      "constant": false,
      "inputs": [
        {
          "name": "_tokenId",
          "type": "uint256"
        }
      ],
      "name": "BuyTicket",
      "outputs": [],
      "payable": true,
      "stateMutability": "payable",
      "type": "function"
    },
    {
      "constant": true,
      "inputs": [],
      "name": "eventBalance",
      "outputs": [
        {
          "name": "",
          "type": "uint256"
        }
      ],
      "payable": false,
      "stateMutability": "view",
      "type": "function"
    },
    {
      "constant": false,
      "inputs": [],
      "name": "finishEvent",
      "outputs": [],
      "payable": false,
      "stateMutability": "nonpayable",
      "type": "function"
    },
    {
      "constant": false,
      "inputs": [
        {
          "name": "_from",
          "type": "address"
        },
        {
          "name": "_to",
          "type": "address"
        },
        {
          "name": "_tokenId",
          "type": "uint256"
        }
      ],
      "name": "_transferFrom",
      "outputs": [],
      "payable": true,
      "stateMutability": "payable",
      "type": "function"
    }
  ],
  "bytecode": "0x608060405260405180807f737570706f727473496e7465726661636528627974657334290000000000000081525060190190506040518091039020600160006101000a81548163ffffffff021916908360e01c02179055506380ac58cd60e01b600860156101000a81548163ffffffff021916908360e01c02179055503480156200008957600080fd5b506040516200314c3803806200314c83398101806040526040811015620000af57600080fd5b81019080805190602001909291908051640100000000811115620000d257600080fd5b82810190506020810184811115620000e957600080fd5b81518560018202830111640100000000821117156200010757600080fd5b50509291905050506001600080600160009054906101000a900460e01b7bffffffffffffffffffffffffffffffffffffffffffffffffffffffff19167bffffffffffffffffffffffffffffffffffffffffffffffffffffffff1916815260200190815260200160002060006101000a81548160ff021916908315150217905550816006819055508060079080519060200190620001a692919062000283565b506001600860006101000a81548160ff02191690831515021790555033600860016101000a81548173ffffffffffffffffffffffffffffffffffffffff021916908373ffffffffffffffffffffffffffffffffffffffff1602179055506001600080600860159054906101000a900460e01b7bffffffffffffffffffffffffffffffffffffffffffffffffffffffff19167bffffffffffffffffffffffffffffffffffffffffffffffffffffffff1916815260200190815260200160002060006101000a81548160ff021916908315150217905550505062000332565b828054600181600116156101000203166002900490600052602060002090601f016020900481019282601f10620002c657805160ff1916838001178555620002f7565b82800160010185558215620002f7579182015b82811115620002f6578251825591602001919060010190620002d9565b5b5090506200030691906200030a565b5090565b6200032f91905b808211156200032b57600081600090555060010162000311565b5090565b90565b612e0a80620003426000396000f3fe60806040526004361061012a5760003560e01c806376acb5e8116100ab578063bfc206ed1161006f578063bfc206ed14610832578063cb712535146108ad578063cfc4355e1461091b578063dc4f63cc146109ab578063e985e9c5146109d6578063f9db27a014610a5f5761012a565b806376acb5e8146106105780637e65b5431461063e5780639fe2a68b14610655578063a22cb465146106d0578063b88d4fde1461072d5761012a565b806323b872dd116100f257806323b872dd1461042557806342842e0e146104935780635fc50dcd146105015780636352211e1461053057806370a08231146105ab5761012a565b806301ffc9a71461012f578063081812fc146101a1578063095ea7b31461021c578063150b7a021461026a57806320214134146103ce575b600080fd5b34801561013b57600080fd5b506101876004803603602081101561015257600080fd5b8101908080357bffffffffffffffffffffffffffffffffffffffffffffffffffffffff19169060200190929190505050610a8a565b604051808215151515815260200191505060405180910390f35b3480156101ad57600080fd5b506101da600480360360208110156101c457600080fd5b8101908080359060200190929190505050610af1565b604051808273ffffffffffffffffffffffffffffffffffffffff1673ffffffffffffffffffffffffffffffffffffffff16815260200191505060405180910390f35b6102686004803603604081101561023257600080fd5b81019080803573ffffffffffffffffffffffffffffffffffffffff16906020019092919080359060200190929190505050610c13565b005b34801561027657600080fd5b5061037a6004803603608081101561028d57600080fd5b81019080803573ffffffffffffffffffffffffffffffffffffffff169060200190929190803573ffffffffffffffffffffffffffffffffffffffff16906020019092919080359060200190929190803590602001906401000000008111156102f457600080fd5b82018360208201111561030657600080fd5b8035906020019184600183028401116401000000008311171561032857600080fd5b91908080601f016020809104026020016040519081016040528093929190818152602001838380828437600081840152601f19601f820116905080830192505050505050509192919290505050610ff1565b60405180827bffffffffffffffffffffffffffffffffffffffffffffffffffffffff19167bffffffffffffffffffffffffffffffffffffffffffffffffffffffff1916815260200191505060405180910390f35b3480156103da57600080fd5b506103e3611016565b604051808273ffffffffffffffffffffffffffffffffffffffff1673ffffffffffffffffffffffffffffffffffffffff16815260200191505060405180910390f35b6104916004803603606081101561043b57600080fd5b81019080803573ffffffffffffffffffffffffffffffffffffffff169060200190929190803573ffffffffffffffffffffffffffffffffffffffff1690602001909291908035906020019092919050505061103c565b005b6104ff600480360360608110156104a957600080fd5b81019080803573ffffffffffffffffffffffffffffffffffffffff169060200190929190803573ffffffffffffffffffffffffffffffffffffffff16906020019092919080359060200190929190505050611126565b005b34801561050d57600080fd5b50610516611607565b604051808215151515815260200191505060405180910390f35b34801561053c57600080fd5b506105696004803603602081101561055357600080fd5b810190808035906020019092919050505061161a565b604051808273ffffffffffffffffffffffffffffffffffffffff1673ffffffffffffffffffffffffffffffffffffffff16815260200191505060405180910390f35b3480156105b757600080fd5b506105fa600480360360208110156105ce57600080fd5b81019080803573ffffffffffffffffffffffffffffffffffffffff1690602001909291905050506116ff565b6040518082815260200191505060405180910390f35b61063c6004803603602081101561062657600080fd5b8101908080359060200190929190505050611748565b005b34801561064a57600080fd5b506106536118e1565b005b34801561066157600080fd5b5061068e6004803603602081101561067857600080fd5b81019080803590602001909291905050506119a4565b604051808273ffffffffffffffffffffffffffffffffffffffff1673ffffffffffffffffffffffffffffffffffffffff16815260200191505060405180910390f35b3480156106dc57600080fd5b5061072b600480360360408110156106f357600080fd5b81019080803573ffffffffffffffffffffffffffffffffffffffff1690602001909291908035151590602001909291905050506119d7565b005b6108306004803603608081101561074357600080fd5b81019080803573ffffffffffffffffffffffffffffffffffffffff169060200190929190803573ffffffffffffffffffffffffffffffffffffffff16906020019092919080359060200190929190803590602001906401000000008111156107aa57600080fd5b8201836020820111156107bc57600080fd5b803590602001918460018302840111640100000000831117156107de57600080fd5b91908080601f016020809104026020016040519081016040528093929190818152602001838380828437600081840152601f19601f820116905080830192505050505050509192919290505050611acc565b005b34801561083e57600080fd5b5061086b6004803603602081101561085557600080fd5b8101908080359060200190929190505050611ecb565b604051808273ffffffffffffffffffffffffffffffffffffffff1673ffffffffffffffffffffffffffffffffffffffff16815260200191505060405180910390f35b610919600480360360608110156108c357600080fd5b81019080803573ffffffffffffffffffffffffffffffffffffffff169060200190929190803573ffffffffffffffffffffffffffffffffffffffff16906020019092919080359060200190929190505050611efe565b005b34801561092757600080fd5b50610930612251565b6040518080602001828103825283818151815260200191508051906020019080838360005b83811015610970578082015181840152602081019050610955565b50505050905090810190601f16801561099d5780820380516001836020036101000a031916815260200191505b509250505060405180910390f35b3480156109b757600080fd5b506109c06122ef565b6040518082815260200191505060405180910390f35b3480156109e257600080fd5b50610a45600480360360408110156109f957600080fd5b81019080803573ffffffffffffffffffffffffffffffffffffffff169060200190929190803573ffffffffffffffffffffffffffffffffffffffff1690602001909291905050506122f5565b604051808215151515815260200191505060405180910390f35b348015610a6b57600080fd5b50610a74612389565b6040518082815260200191505060405180910390f35b6000806000837bffffffffffffffffffffffffffffffffffffffffffffffffffffffff19167bffffffffffffffffffffffffffffffffffffffffffffffffffffffff1916815260200190815260200160002060009054906101000a900460ff169050919050565b600081600073ffffffffffffffffffffffffffffffffffffffff166002600083815260200190815260200160002060009054906101000a900473ffffffffffffffffffffffffffffffffffffffff1673ffffffffffffffffffffffffffffffffffffffff16141580610b6557506006548111155b610bd7576040517f08c379a000000000000000000000000000000000000000000000000000000000815260040180806020018281038252600f8152602001807f4e4f542056414c494420544f4b454e000000000000000000000000000000000081525060200191505060405180910390fd5b6003600084815260200190815260200160002060009054906101000a900473ffffffffffffffffffffffffffffffffffffffff16915050919050565b8060006002600083815260200190815260200160002060009054906101000a900473ffffffffffffffffffffffffffffffffffffffff1690503373ffffffffffffffffffffffffffffffffffffffff168173ffffffffffffffffffffffffffffffffffffffff161480610d0c5750600560008273ffffffffffffffffffffffffffffffffffffffff1673ffffffffffffffffffffffffffffffffffffffff16815260200190815260200160002060003373ffffffffffffffffffffffffffffffffffffffff1673ffffffffffffffffffffffffffffffffffffffff16815260200190815260200160002060009054906101000a900460ff165b610d7e576040517f08c379a00000000000000000000000000000000000000000000000000000000081526004018080602001828103825260158152602001807f4e4f54204f574e4552204f52204f50455241544f52000000000000000000000081525060200191505060405180910390fd5b82600073ffffffffffffffffffffffffffffffffffffffff166002600083815260200190815260200160002060009054906101000a900473ffffffffffffffffffffffffffffffffffffffff1673ffffffffffffffffffffffffffffffffffffffff16141580610df057506006548111155b610e62576040517f08c379a000000000000000000000000000000000000000000000000000000000815260040180806020018281038252600f8152602001807f4e4f542056414c494420544f4b454e000000000000000000000000000000000081525060200191505060405180910390fd5b60006002600086815260200190815260200160002060009054906101000a900473ffffffffffffffffffffffffffffffffffffffff1690508073ffffffffffffffffffffffffffffffffffffffff168673ffffffffffffffffffffffffffffffffffffffff161415610f3c576040517f08c379a00000000000000000000000000000000000000000000000000000000081526004018080602001828103825260088152602001807f4953204f574e455200000000000000000000000000000000000000000000000081525060200191505060405180910390fd5b856003600087815260200190815260200160002060006101000a81548173ffffffffffffffffffffffffffffffffffffffff021916908373ffffffffffffffffffffffffffffffffffffffff160217905550848673ffffffffffffffffffffffffffffffffffffffff168273ffffffffffffffffffffffffffffffffffffffff167f8c5be1e5ebec7d5bd14f71427d1e84f3dd0314c0f7b2291e5b200ac8c7c3b92560405160405180910390a4505050505050565b60006040518080612d34602f9139602f01905060405180910390209050949350505050565b600860019054906101000a900473ffffffffffffffffffffffffffffffffffffffff1681565b60006002600083815260200190815260200160002060009054906101000a900473ffffffffffffffffffffffffffffffffffffffff1690503373ffffffffffffffffffffffffffffffffffffffff168173ffffffffffffffffffffffffffffffffffffffff1614611115576040517f08c379a00000000000000000000000000000000000000000000000000000000081526004018080602001828103825260178152602001807f6f6e6c79206f776e65722063616e207472616e7366657200000000000000000081525060200191505060405180910390fd5b611120848484611efe565b50505050565b8060006002600083815260200190815260200160002060009054906101000a900473ffffffffffffffffffffffffffffffffffffffff1690503373ffffffffffffffffffffffffffffffffffffffff168173ffffffffffffffffffffffffffffffffffffffff1614806111f757503373ffffffffffffffffffffffffffffffffffffffff166003600084815260200190815260200160002060009054906101000a900473ffffffffffffffffffffffffffffffffffffffff1673ffffffffffffffffffffffffffffffffffffffff16145b806112885750600560008273ffffffffffffffffffffffffffffffffffffffff1673ffffffffffffffffffffffffffffffffffffffff16815260200190815260200160002060003373ffffffffffffffffffffffffffffffffffffffff1673ffffffffffffffffffffffffffffffffffffffff16815260200190815260200160002060009054906101000a900460ff165b6112fa576040517f08c379a000000000000000000000000000000000000000000000000000000000815260040180806020018281038252601e8152602001807f4e4f54204f574e455220415050524f564544204f52204f50455241544f52000081525060200191505060405180910390fd5b60011515600860009054906101000a900460ff16151514611383576040517f08c379a00000000000000000000000000000000000000000000000000000000081526004018080602001828103825260118152602001807f4576656e742069732066696e697368656400000000000000000000000000000081525060200191505060405180910390fd5b82600073ffffffffffffffffffffffffffffffffffffffff166002600083815260200190815260200160002060009054906101000a900473ffffffffffffffffffffffffffffffffffffffff1673ffffffffffffffffffffffffffffffffffffffff161415806113f557506006548111155b611467576040517f08c379a000000000000000000000000000000000000000000000000000000000815260040180806020018281038252600f8152602001807f4e4f542056414c494420544f4b454e000000000000000000000000000000000081525060200191505060405180910390fd5b60006002600086815260200190815260200160002060009054906101000a900473ffffffffffffffffffffffffffffffffffffffff1690508673ffffffffffffffffffffffffffffffffffffffff168173ffffffffffffffffffffffffffffffffffffffff1614611540576040517f08c379a00000000000000000000000000000000000000000000000000000000081526004018080602001828103825260098152602001807f4e4f54204f574e4552000000000000000000000000000000000000000000000081525060200191505060405180910390fd5b600073ffffffffffffffffffffffffffffffffffffffff168673ffffffffffffffffffffffffffffffffffffffff1614156115e3576040517f08c379a000000000000000000000000000000000000000000000000000000000815260040180806020018281038252600c8152602001807f5a45524f2041444452455353000000000000000000000000000000000000000081525060200191505060405180910390fd5b6115fe878787604051806020016040528060008152506123a8565b50505050505050565b600860009054906101000a900460ff1681565b6000806002600084815260200190815260200160002060009054906101000a900473ffffffffffffffffffffffffffffffffffffffff169050600073ffffffffffffffffffffffffffffffffffffffff168173ffffffffffffffffffffffffffffffffffffffff1614156116f6576040517f08c379a00000000000000000000000000000000000000000000000000000000081526004018080602001828103825260088152602001807f4e4f204f574e455200000000000000000000000000000000000000000000000081525060200191505060405180910390fd5b80915050919050565b6000600460008373ffffffffffffffffffffffffffffffffffffffff1673ffffffffffffffffffffffffffffffffffffffff168152602001908152602001600020549050919050565b600073ffffffffffffffffffffffffffffffffffffffff166002600083815260200190815260200160002060009054906101000a900473ffffffffffffffffffffffffffffffffffffffff1673ffffffffffffffffffffffffffffffffffffffff161461181d576040517f08c379a00000000000000000000000000000000000000000000000000000000081526004018080602001828103825260138152602001807f5449434b455420414c524541445920534f4c440000000000000000000000000081525060200191505060405180910390fd5b612710341015611878576040517f08c379a0000000000000000000000000000000000000000000000000000000008152600401808060200182810382526029815260200180612d956029913960400191505060405180910390fd5b611882338261241a565b803373ffffffffffffffffffffffffffffffffffffffff16600073ffffffffffffffffffffffffffffffffffffffff167fddf252ad1be2c89b69c2b068fc378daa952ba7f163c4a11628f55a4df523b3ef60405160405180910390a450565b600860019054906101000a900473ffffffffffffffffffffffffffffffffffffffff1673ffffffffffffffffffffffffffffffffffffffff163373ffffffffffffffffffffffffffffffffffffffff1614611987576040517f08c379a0000000000000000000000000000000000000000000000000000000008152600401808060200182810382526021815260200180612dbe6021913960400191505060405180910390fd5b6000600860006101000a81548160ff021916908315150217905550565b60036020528060005260406000206000915054906101000a900473ffffffffffffffffffffffffffffffffffffffff1681565b80600560003373ffffffffffffffffffffffffffffffffffffffff1673ffffffffffffffffffffffffffffffffffffffff16815260200190815260200160002060008473ffffffffffffffffffffffffffffffffffffffff1673ffffffffffffffffffffffffffffffffffffffff16815260200190815260200160002060006101000a81548160ff0219169083151502179055508015158273ffffffffffffffffffffffffffffffffffffffff163373ffffffffffffffffffffffffffffffffffffffff167f17307eab39ab6107e8899845ad3d59bd9653f200f220920489ca2b5937696c3160405160405180910390a45050565b8160006002600083815260200190815260200160002060009054906101000a900473ffffffffffffffffffffffffffffffffffffffff1690503373ffffffffffffffffffffffffffffffffffffffff168173ffffffffffffffffffffffffffffffffffffffff161480611b9d57503373ffffffffffffffffffffffffffffffffffffffff166003600084815260200190815260200160002060009054906101000a900473ffffffffffffffffffffffffffffffffffffffff1673ffffffffffffffffffffffffffffffffffffffff16145b80611c2e5750600560008273ffffffffffffffffffffffffffffffffffffffff1673ffffffffffffffffffffffffffffffffffffffff16815260200190815260200160002060003373ffffffffffffffffffffffffffffffffffffffff1673ffffffffffffffffffffffffffffffffffffffff16815260200190815260200160002060009054906101000a900460ff165b611ca0576040517f08c379a000000000000000000000000000000000000000000000000000000000815260040180806020018281038252601e8152602001807f4e4f54204f574e455220415050524f564544204f52204f50455241544f52000081525060200191505060405180910390fd5b60011515600860009054906101000a900460ff16151514611d29576040517f08c379a00000000000000000000000000000000000000000000000000000000081526004018080602001828103825260118152602001807f4576656e742069732066696e697368656400000000000000000000000000000081525060200191505060405180910390fd5b83600073ffffffffffffffffffffffffffffffffffffffff166002600083815260200190815260200160002060009054906101000a900473ffffffffffffffffffffffffffffffffffffffff1673ffffffffffffffffffffffffffffffffffffffff16141580611d9b57506006548111155b611e0d576040517f08c379a000000000000000000000000000000000000000000000000000000000815260040180806020018281038252600f8152602001807f4e4f542056414c494420544f4b454e000000000000000000000000000000000081525060200191505060405180910390fd5b60006002600087815260200190815260200160002060009054906101000a900473ffffffffffffffffffffffffffffffffffffffff169050611e60888888604051806020016040528060008152506123a8565b611e6c888888886125db565b611ec1576040517f08c379a0000000000000000000000000000000000000000000000000000000008152600401808060200182810382526032815260200180612d636032913960400191505060405180910390fd5b5050505050505050565b60026020528060005260406000206000915054906101000a900473ffffffffffffffffffffffffffffffffffffffff1681565b8060006002600083815260200190815260200160002060009054906101000a900473ffffffffffffffffffffffffffffffffffffffff1690503373ffffffffffffffffffffffffffffffffffffffff168173ffffffffffffffffffffffffffffffffffffffff161480611fcf57503373ffffffffffffffffffffffffffffffffffffffff166003600084815260200190815260200160002060009054906101000a900473ffffffffffffffffffffffffffffffffffffffff1673ffffffffffffffffffffffffffffffffffffffff16145b806120605750600560008273ffffffffffffffffffffffffffffffffffffffff1673ffffffffffffffffffffffffffffffffffffffff16815260200190815260200160002060003373ffffffffffffffffffffffffffffffffffffffff1673ffffffffffffffffffffffffffffffffffffffff16815260200190815260200160002060009054906101000a900460ff165b6120d2576040517f08c379a000000000000000000000000000000000000000000000000000000000815260040180806020018281038252601e8152602001807f4e4f54204f574e455220415050524f564544204f52204f50455241544f52000081525060200191505060405180910390fd5b60011515600860009054906101000a900460ff1615151461215b576040517f08c379a00000000000000000000000000000000000000000000000000000000081526004018080602001828103825260118152602001807f4576656e742069732066696e697368656400000000000000000000000000000081525060200191505060405180910390fd5b82600073ffffffffffffffffffffffffffffffffffffffff166002600083815260200190815260200160002060009054906101000a900473ffffffffffffffffffffffffffffffffffffffff1673ffffffffffffffffffffffffffffffffffffffff161415806121cd57506006548111155b61223f576040517f08c379a000000000000000000000000000000000000000000000000000000000815260040180806020018281038252600f8152602001807f4e4f542056414c494420544f4b454e000000000000000000000000000000000081525060200191505060405180910390fd5b6122498585612910565b505050505050565b60078054600181600116156101000203166002900480601f0160208091040260200160405190810160405280929190818152602001828054600181600116156101000203166002900480156122e75780601f106122bc576101008083540402835291602001916122e7565b820191906000526020600020905b8154815290600101906020018083116122ca57829003601f168201915b505050505081565b60065481565b6000600560008473ffffffffffffffffffffffffffffffffffffffff1673ffffffffffffffffffffffffffffffffffffffff16815260200190815260200160002060008373ffffffffffffffffffffffffffffffffffffffff1673ffffffffffffffffffffffffffffffffffffffff16815260200190815260200160002060009054906101000a900460ff16905092915050565b60003073ffffffffffffffffffffffffffffffffffffffff1631905090565b6123b3848484611efe565b6123bf848484846125db565b612414576040517f08c379a0000000000000000000000000000000000000000000000000000000008152600401808060200182810382526032815260200180612d636032913960400191505060405180910390fd5b50505050565b600073ffffffffffffffffffffffffffffffffffffffff166002600083815260200190815260200160002060009054906101000a900473ffffffffffffffffffffffffffffffffffffffff1673ffffffffffffffffffffffffffffffffffffffff16146124ef576040517f08c379a00000000000000000000000000000000000000000000000000000000081526004018080602001828103825260128152602001807f4e46545f414c52454144595f455849535453000000000000000000000000000081525060200191505060405180910390fd5b816002600083815260200190815260200160002060006101000a81548173ffffffffffffffffffffffffffffffffffffffff021916908373ffffffffffffffffffffffffffffffffffffffff1602179055506125946001600460008573ffffffffffffffffffffffffffffffffffffffff1673ffffffffffffffffffffffffffffffffffffffff168152602001908152602001600020546129c590919063ffffffff16565b600460008473ffffffffffffffffffffffffffffffffffffffff1673ffffffffffffffffffffffffffffffffffffffff168152602001908152602001600020819055505050565b60006125fc8473ffffffffffffffffffffffffffffffffffffffff16612ab3565b6126095760019050612908565b600060608573ffffffffffffffffffffffffffffffffffffffff168673ffffffffffffffffffffffffffffffffffffffff1663150b7a02905060e01b33898888604051602401808573ffffffffffffffffffffffffffffffffffffffff1673ffffffffffffffffffffffffffffffffffffffff1681526020018473ffffffffffffffffffffffffffffffffffffffff1673ffffffffffffffffffffffffffffffffffffffff16815260200183815260200180602001828103825283818151815260200191508051906020019080838360005b838110156126f65780820151818401526020810190506126db565b50505050905090810190601f1680156127235780820380516001836020036101000a031916815260200191505b5095505050505050604051602081830303815290604052907bffffffffffffffffffffffffffffffffffffffffffffffffffffffff19166020820180517bffffffffffffffffffffffffffffffffffffffffffffffffffffffff83818316178352505050506040518082805190602001908083835b602083106127bb5780518252602082019150602081019050602083039250612798565b6001836020036101000a0380198251168184511680821785525050505050509050019150506000604051808303816000865af19150503d806000811461281d576040519150601f19603f3d011682016040523d82523d6000602084013e612822565b606091505b5091509150816128905760008151111561283f5780518082602001fd5b6040517f08c379a0000000000000000000000000000000000000000000000000000000008152600401808060200182810382526032815260200180612d636032913960400191505060405180910390fd5b60008180602001905160208110156128a757600080fd5b8101908080519060200190929190505050905063150b7a0260e01b7bffffffffffffffffffffffffffffffffffffffffffffffffffffffff1916817bffffffffffffffffffffffffffffffffffffffffffffffffffffffff19161493505050505b949350505050565b60006002600083815260200190815260200160002060009054906101000a900473ffffffffffffffffffffffffffffffffffffffff16905061295182612afe565b61295b8183612b9f565b612965838361241a565b818373ffffffffffffffffffffffffffffffffffffffff168273ffffffffffffffffffffffffffffffffffffffff167fddf252ad1be2c89b69c2b068fc378daa952ba7f163c4a11628f55a4df523b3ef60405160405180910390a4505050565b60008183019050828110156040518060400160405280600681526020017f303038303031000000000000000000000000000000000000000000000000000081525090612aac576040517f08c379a00000000000000000000000000000000000000000000000000000000081526004018080602001828103825283818151815260200191508051906020019080838360005b83811015612a71578082015181840152602081019050612a56565b50505050905090810190601f168015612a9e5780820380516001836020036101000a031916815260200191505b509250505060405180910390fd5b5092915050565b60008060007fc5d2460186f7233c927e7db2dcc703c0e500b653ca82273b7bfad8045d85a47060001b9050833f91506000801b8214158015612af55750808214155b92505050919050565b600073ffffffffffffffffffffffffffffffffffffffff166003600083815260200190815260200160002060009054906101000a900473ffffffffffffffffffffffffffffffffffffffff1673ffffffffffffffffffffffffffffffffffffffff1614612b9c576003600082815260200190815260200160002060006101000a81549073ffffffffffffffffffffffffffffffffffffffff02191690555b50565b8173ffffffffffffffffffffffffffffffffffffffff166002600083815260200190815260200160002060009054906101000a900473ffffffffffffffffffffffffffffffffffffffff1673ffffffffffffffffffffffffffffffffffffffff1614612c73576040517f08c379a00000000000000000000000000000000000000000000000000000000081526004018080602001828103825260098152602001807f4e4f545f4f574e4552000000000000000000000000000000000000000000000081525060200191505060405180910390fd5b6001600460008473ffffffffffffffffffffffffffffffffffffffff1673ffffffffffffffffffffffffffffffffffffffff1681526020019081526020016000205403600460008473ffffffffffffffffffffffffffffffffffffffff1673ffffffffffffffffffffffffffffffffffffffff168152602001908152602001600020819055506002600082815260200190815260200160002060006101000a81549073ffffffffffffffffffffffffffffffffffffffff0219169055505056fe6f6e455243373231526563656976656428616464726573732c616464726573732c75696e743235362c6279746573294552433732313a207472616e7366657220746f206e6f6e20455243373231526563656976657220696d706c656d656e7465725469636b65742072657175697265207061796d656e74206174206c65617374203130303030207765694f6e6c79204576656e74204f776e65722063616e2066696e697368206576656e74a165627a7a723058204c600539f4bcbc1d6123da3d69f36884b8ab28ea0ea98523020d48a292658c340029",
  "source": "pragma solidity 0.5.8;\n\nimport \"./ERC721.sol\";\nimport \"./utils/safe-math.sol\";\nimport \"./utils/supported-Interfaces.sol\";\nimport \"./utils/erc721-token-receiver.sol\";\nimport \"./utils/address-utils.sol\";\n\ncontract TicketMaster is ERC721, SupportsInterface, ERC721TokenReceiver {\n    using SafeMath for uint256;\n    using AddressUtils for address;\n\n    bytes4 internal constant MAGIC_ON_ERC721_RECEIVED = 0x150b7a02;\n    bytes4 internal constant _ERC721_RECEIVED = 0x150b7a02;\n\n    mapping(uint256 => address) public idToOwner;\n    mapping(uint256 => address) public idToApproval;\n    mapping(address => uint256) private ownerToNFTokenCount;\n    mapping(address => mapping(address => bool)) internal ownerToOperators;\n\n    uint256 public cap_max;\n    string public event_name;\n    bool public event_active;\n    address public eventOwner;\n\n    /*\n     *     bytes4(keccak256('balanceOf(address)')) == 0x70a08231\n     *     bytes4(keccak256('ownerOf(uint256)')) == 0x6352211e\n     *     bytes4(keccak256('approve(address,uint256)')) == 0x095ea7b3\n     *     bytes4(keccak256('getApproved(uint256)')) == 0x081812fc\n     *     bytes4(keccak256('setApprovalForAll(address,bool)')) == 0xa22cb465\n     *     bytes4(keccak256('isApprovedForAll(address,address)')) == 0xe985e9c5\n     *     bytes4(keccak256('transferFrom(address,address,uint256)')) == 0x23b872dd\n     *     bytes4(keccak256('safeTransferFrom(address,address,uint256)')) == 0x42842e0e\n     *     bytes4(keccak256('safeTransferFrom(address,address,uint256,bytes)')) == 0xb88d4fde\n     *\n     *     => 0x70a08231 ^ 0x6352211e ^ 0x095ea7b3 ^ 0x081812fc ^\n     *        0xa22cb465 ^ 0xe985e9c ^ 0x23b872dd ^ 0x42842e0e ^ 0xb88d4fde == 0x80ac58cd\n     */\n    bytes4 private _INTERFACE_ID_ERC721 = 0x80ac58cd;\n\n    constructor(uint256 _cap_max, string memory _event_name) public {\n        cap_max = _cap_max;\n        event_name = _event_name;\n        event_active = true;\n        eventOwner = msg.sender;\n        supportedInterfaces[_INTERFACE_ID_ERC721] = true;\n\n    }\n\n    modifier canOperate(uint256 _tokenId) {\n        address tokenOwner = idToOwner[_tokenId];\n        require(\n            tokenOwner == msg.sender ||\n                ownerToOperators[tokenOwner][msg.sender],\n            \"NOT OWNER OR OPERATOR\"\n        );\n        _;\n    }\n\n    modifier canTransfer(uint256 _tokenId) {\n        address tokenOwner = idToOwner[_tokenId];\n        require(\n            tokenOwner == msg.sender ||\n                idToApproval[_tokenId] == msg.sender ||\n                ownerToOperators[tokenOwner][msg.sender],\n            \"NOT OWNER APPROVED OR OPERATOR\"\n        );\n        require(event_active == true, \"Event is finished\");\n        _;\n    }\n\n    modifier validNFToken(uint256 _tokenId) {\n        require(\n            idToOwner[_tokenId] != address(0) || _tokenId <= cap_max,\n            \"NOT VALID TOKEN\"\n        );\n        _;\n    }\n\n    event Transfer(\n        address indexed _from,\n        address indexed _to,\n        uint256 indexed _tokenId\n    );\n    event Approval(\n        address indexed _owner,\n        address indexed _approved,\n        uint256 indexed _tokenId\n    );\n    event ApprovalForAll(\n        address indexed _owner,\n        address indexed _operator,\n        bool indexed _approved\n    );\n\n    function supportsInterface(bytes4 _interfaceID)\n        external\n        view\n        returns (bool)\n    {\n        return supportedInterfaces[_interfaceID];\n    }\n\n    //========= ERC721  FUNCTIONS =======//\n\n    function balanceOf(address _owner) public view returns (uint256) {\n        return ownerToNFTokenCount[_owner];\n    }\n\n    function ownerOf(uint256 _tokenId) public view returns (address) {\n        address _owner;\n        _owner = idToOwner[_tokenId];\n        require(_owner != address(0), \"NO OWNER\");\n        return _owner;\n    }\n\n    function safeTransferFrom(\n        address _from,\n        address _to,\n        uint256 _tokenId,\n        bytes memory _data\n    ) public payable canTransfer(_tokenId) validNFToken(_tokenId) {\n        address tokenOwner = idToOwner[_tokenId];\n        _safeTransferFrom(_from, _to, _tokenId, \"\");\n        require(\n            _checkOnERC721Received(_from, _to, _tokenId, _data),\n            \"ERC721: transfer to non ERC721Receiver implementer\"\n        );\n    }\n\n    function safeTransferFrom(address _from, address _to, uint256 _tokenId)\n        public\n        payable\n        canTransfer(_tokenId)\n        validNFToken(_tokenId)\n    {\n        address tokenOwner = idToOwner[_tokenId];\n        require(tokenOwner == _from, \"NOT OWNER\");\n        require(_to != address(0), \"ZERO ADDRESS\");\n\n        _safeTransferFrom(_from, _to, _tokenId, \"\");\n    }\n\n    function transferFrom(address from, address to, uint256 tokenId)\n        public\n        payable\n    {\n        address tokenOwner = idToOwner[tokenId];\n        require(tokenOwner == msg.sender, \"only owner can transfer\");\n        //solhint-disable-next-line max-line-length\n        _transferFrom(from, to, tokenId);\n    }\n\n    function approve(address _approved, uint256 _tokenId)\n        public\n        payable\n        canOperate(_tokenId)\n        validNFToken(_tokenId)\n    {\n        address tokenOwner = idToOwner[_tokenId];\n        require(_approved != tokenOwner, \"IS OWNER\");\n\n        idToApproval[_tokenId] = _approved;\n        emit Approval(tokenOwner, _approved, _tokenId);\n    }\n\n    function setApprovalForAll(address _operator, bool _approved) public {\n        ownerToOperators[msg.sender][_operator] = _approved;\n        emit ApprovalForAll(msg.sender, _operator, _approved);\n    }\n\n    function getApproved(uint256 _tokenId)\n        public\n        view\n        validNFToken(_tokenId)\n        returns (address)\n    {\n        return idToApproval[_tokenId];\n    }\n\n    function isApprovedForAll(address _owner, address _operator)\n        external\n        view\n        returns (bool)\n    {\n        return ownerToOperators[_owner][_operator];\n    }\n\n    //========= onERC721Received INTERFACE =======//\n\n    function onERC721Received(\n        address _operator,\n        address _from,\n        uint256 _tokenId,\n        bytes memory _data\n    ) public returns (bytes4) {\n        return\n            bytes4(\n                keccak256(\"onERC721Received(address,address,uint256,bytes)\")\n            );\n    }\n\n    //========= CONTRACT FUNCTIONS =======//\n\n    /**\n   * @dev Mints a new NFT.\n   * @notice This is an internal function which should be called from user-implemented external\n   * mint function. Its purpose is to show and properly initialize data structures when using this\n   * implementation.\n   * @param _tokenId of the NFT to be minted by the msg.sender.\n   */\n    function BuyTicket(uint256 _tokenId) public payable {\n        require(\n            idToOwner[_tokenId] == 0x0000000000000000000000000000000000000000,\n            \"TICKET ALREADY SOLD\"\n        );\n        require(\n            msg.value >= 10000,\n            \"Ticket require payment at least 10000 wei\"\n        );\n        _addNFToken(msg.sender, _tokenId);\n\n        emit Transfer(address(0), msg.sender, _tokenId);\n    }\n\n    function eventBalance() public view returns (uint256) {\n        return address(this).balance;\n    }\n\n    function finishEvent() public {\n        require(msg.sender == eventOwner, \"Only Event Owner can finish event\");\n        event_active = false;\n    }\n\n    //========= INTERNAL FUNCTIONS =======//\n\n    /**\n   * @dev Assignes a new NFT to owner.\n   * @notice Use and override this function with caution. Wrong usage can have serious consequences.\n   * @param _to Address to wich we want to add the NFT.\n   * @param _tokenId Which NFT we want to add.\n   */\n    function _addNFToken(address _to, uint256 _tokenId) internal {\n        require(idToOwner[_tokenId] == address(0), \"NFT_ALREADY_EXISTS\");\n\n        idToOwner[_tokenId] = _to;\n        ownerToNFTokenCount[_to] = ownerToNFTokenCount[_to].add(1);\n    }\n\n    function _removeNFToken(address _from, uint256 _tokenId) internal {\n        require(idToOwner[_tokenId] == _from, \"NOT_OWNER\");\n        ownerToNFTokenCount[_from] = ownerToNFTokenCount[_from] - 1;\n        delete idToOwner[_tokenId];\n    }\n\n    function _getOwnerNFTCount(address _owner) internal view returns (uint256) {\n        return ownerToNFTokenCount[_owner];\n    }\n\n    function _clearApproval(uint256 _tokenId) private {\n        if (idToApproval[_tokenId] != address(0)) {\n            delete idToApproval[_tokenId];\n        }\n    }\n\n    function _transfer(address _to, uint256 _tokenId) internal {\n        address _from = idToOwner[_tokenId];\n        _clearApproval(_tokenId);\n\n        _removeNFToken(_from, _tokenId);\n        _addNFToken(_to, _tokenId);\n\n        emit Transfer(_from, _to, _tokenId);\n    }\n\n    function _transferFrom(address _from, address _to, uint256 _tokenId)\n        public\n        payable\n        canTransfer(_tokenId)\n        validNFToken(_tokenId)\n    {\n        _transfer(_to, _tokenId);\n    }\n\n    function _safeTransferFrom(\n        address _from,\n        address _to,\n        uint256 tokenId,\n        bytes memory _data\n    ) internal {\n        _transferFrom(_from, _to, tokenId);\n        require(\n            _checkOnERC721Received(_from, _to, tokenId, _data),\n            \"ERC721: transfer to non ERC721Receiver implementer\"\n        );\n    }\n    function _checkOnERC721Received(\n        address from,\n        address to,\n        uint256 tokenId,\n        bytes memory _data\n    ) internal returns (bool) {\n        if (!to.isContract()) {\n            return true;\n        }\n        // solhint-disable-next-line avoid-low-level-calls\n        (bool success, bytes memory returndata) = to.call(\n            abi.encodeWithSelector(\n                ERC721TokenReceiver(to).onERC721Received.selector,\n                msg.sender,\n                from,\n                tokenId,\n                _data\n            )\n        );\n        if (!success) {\n            if (returndata.length > 0) {\n                // solhint-disable-next-line no-inline-assembly\n                assembly {\n                    let returndata_size := mload(returndata)\n                    revert(add(32, returndata), returndata_size)\n                }\n            } else {\n                revert(\"ERC721: transfer to non ERC721Receiver implementer\");\n            }\n        } else {\n            bytes4 retval = abi.decode(returndata, (bytes4));\n            return (retval == _ERC721_RECEIVED);\n        }\n    }\n\n}\n",
  "sourcePath": "/Users/eduardopezzi/Documents/GitHub/ticket-issuer-contract/contracts/TicketMaster.sol",
  "compiler": {
    "name": "solc",
    "version": "0.5.8+commit.23d335f2.Emscripten.clang"
  },
  "schemaVersion": "3.0.16",
  "updatedAt": "2020-02-10T21:09:50.171Z",
  "devdoc": {
    "methods": {
      "BuyTicket(uint256)": {
        "details": "Mints a new NFT.",
        "params": {
          "_tokenId": "of the NFT to be minted by the msg.sender."
        }
      }
    }
  },
  "userdoc": {
    "methods": {
      "BuyTicket(uint256)": {
        "notice": "This is an internal function which should be called from user-implemented external mint function. Its purpose is to show and properly initialize data structures when using this implementation."
      }
    }
  }
}